:10010600AF8274FE559A4FF59A439A0822E582FF0C
:100116007009C281C2805393FD8029BF0109C28143
:10012600D2805393EF801DBF0209D281C2805393C0
:10013600DF8011BF0309D281D2805397FB800575FA
:1001460082FF800375820122AF82439A047401B54F
:100156001126EF7008C281C280C283804BBF02089D
:10016600D281C280C2838040BF0308D281D280C2BE
:100176008380357582FF80337403B51126EF7008CE
:10018600C281C280C2838020BF0108C281D280C2E0
:10019600838015BF0208D281C280C283800A75821D
:1001A600FF80087582FF80037582012275A155754F
:1001B600A1AA74F855B94406F5B975A10022AE8214
:1001C600AF83EE4F601505A105A105A105A105A107
:1001D60005A105A11EBEFF011F80E722AE82AF83E7
:1001E600EE4F60159003E8C007C0061201C4D006A2
:1001F600D0071EBEFF011F80E722AE82AF83109993
:100206000280FB8E998E828F832210980280FBAE2D
:10021600997F008E828F8322D2B4D2B322751101C8
:10022600E511FF14F511EF70F722D2B4D2B3120222
:1002360023C2B4120223C2B312022322C2B4D2B31F
:10024600120223D2B4120223227F00A2D792B4D282
:10025600B3C007120223C2B3120223D0070FBF088E
:100266000040E8227F00D2B47E00EF2FFFD2B3C059
:1002760007C006120223D006D00730B40343070195
:10028600C2B3C007C006120223D006D0070EBE08AE
:100296000040D78F8222D2B4D2B3120223A2B492E4
:1002A60000C2B3120223A200B32212029C9201B32F
:1002B60022AF8275FC00EF700575FA608006BF03F9
:1002C6000375FA6853920F4393B05393BF75FB02BD
:1002D6002243FC5043FA01E5F875F8FF228582F9BE
:1002E60030FBFD2275F9FF30FBFD85F9822275FC96
:1002F6008075FA8153920F53930F228582F910FC71
:100306000280FB2210FC0280FB85F982227F008F8F
:10031600107E00ADC35305F88E04EC4D04F5C37D85
:10032600058D041DEC600EE5C330E7FBACC4740F0D
:100336005C2FFF80ECEE2E2408F98F0575F005ED95
:1003460084FD7C0074F02DFD74073CFCE5C4520569
:10035600E5C55204A70509A704190EBE040040B35B
:1003660022AF82BF0600500FAEC35306F8EF4E040D
:10037600F5C3758201800375820022E5C330E7FB71
:10038600AEC4AFC5E5C35407FD24FC500553C3F8FE
:100396008005E5C304F5C38D04EC2C2408F9870316
:1003A600098704EB24ECFBEC34FFFCC3EE9BEF9CCB
:0503B60050028D102231
:040000000200B63212
:01000B0032C2
:0100130032BA
:01001B0032B2
:030023000209C00F
:01002B0032A2
:01003300329A
:01003B003292
:03004300020410A4
:100048000000E2FBEAF2802C0000E0FBEAF08024EA
:10005800E6B50202EBF62200E2B50202EBF222005C
:10006800E0B50202EBF02230F6E0A88220F5D3EAF0
:10007800C6F582228B822230F6E6A88220F5D98046
:01008800CFA8
:1000C90078B5760078B6760078B7760078B8760095
:1000D90078B9760078BA7600900001E4F0900002D1
:1000E90074E1F0900003E4F0900004F0900005F052
:0D00F900900006F09000077408F0020089E6
:030089000209FD6C
:1003BB0075E20053E27F43E22975E30053E2BF533A
:1003CB00D1FB75D18043D1012243E10443E10243C8
:1003DB00E10143D81FD2EAD2AF227E407F008EEEDE
:1003EB008FEF7E807F008EE48FE575EBCC75D4129A
:1003FB0075D2127E007F008EEC8FED75EA4075DCB6
:10040B000222D2AC22C021C0E0C0F0C082C083C0A7
:10041B0007C006C005C004C003C002C001C000C0B5
:10042B00D075D00020D90302094A743F55D9FFFE7D
:10043B00BE0003020911BF02028038BF200302086D
:10044B009ABF2102800DBF22028016BF3002803C72
:10045B0002094875D30074FC55D24402F5D2020947
:10046B004875D50074FC55D44402F5D478BA76009F
:10047B0002094820DE0302094878B8A6DB78B97672
:10048B000074F355D44408F5D4020948AEDB7F0061
:10049B00BE0805BF0002800302086A900007E0FE59
:1004AB007F00900006E07C004FF522EC4EF5237E9A
:1004BB0000900001E0F524900000E0FD5460607CAA
:1004CB007420B5240302086E7421B52402800A74CB
:1004DB0022B5240302086E805C7527017528007510
:1004EB002900AC22AD23C3EC9408ED94009202409A
:1004FB00067C087D008004AC22AD238C068D07851D
:10050B0027118528128529138E148F1590000075DD
:10051B00F000C007C006120BA9D006D007E522C316
:10052B009EF522E5239FF523EE2527F527EF3528AA
:10053B00F52802086E7EFF7F0002086EE52424F585
:10054B005003020864E524240B83F582E524240F71
:10055B0083F583E47342906437645E76646A876ED6
:10056B000806080708060508060608900003E0FDC4
:10057B00BD0102800ABD02028014BD0372801E758C
:10058B00273975280C7529807C127D0080657527AD
:10059B004B75280C7529807C437D0080569000029A
:1005AB00E0700F75278E75280C7529807C047D00F3
:1005BB008041900002E0FBBB010F7527BA75280C38
:1005CB007529807C0A7D00802A900002E0FBBB022B
:1005DB000F7527A675280C7529807C147D00801358
:1005EB0075279275280C7529807C147D0080047CFE
:1005FB00FF7D00C3EC9522ED952350048C228D23B7
:10060B00AC22AD23C3EC9408ED9400920240067C1F
:10061B00087D008004AC22AD238C068D0785271145
:10062B008528128529138E148F1590000075F00004
:10063B00C007C006120BA9D006D007E522C39EF552
:10064B0022E5239FF523EE2527F527EF3528F528FF
:10065B0002086E900002E0F52275230002086E90EE
:10066B000000E526F0AC22AD23C3EC9401ED940021
:10067B00500302086E7E017F0002086E900002E0BC
:10068B00F52602086E900000E0541F7032900003B4
:10069B00E0FC7D00900002E0FB7A004205EA420498
:1006AB00BD0115BC0012900C52E49330E503020817
:1006BB006E7EFF7F0002086E7EFF7F0002086E9049
:1006CB000000E0FD53051FBD025B900004E0FDBD83
:1006DB0001028044BD0202802EBD03028018BD8141
:1006EB0002802ABD82028014BD833374BC55D6446C
:1006FB0002F5D602086E53D67302086E74BC55D43D
:10070B004402F5D402086E53D47302086E74BC55C0
:10071B00D24402F5D202086E53D27302086E7EFFEA
:10072B007F0002086E7EFF7F0002086E900000E0E3
:10073B00541F704C900003E0FC7D00900002E0FB26
:10074B007A004205EA4204BD012FBC002C900C52EA
:10075B00E49330E51DE5A220E7FB75A15575A1AA31
:10076B0075A9C143870275A15575A1AA75A9000288
:10077B00086E7EFF7F0002086E7EFF7F0002086E10
:10078B00900000E0FD53051FBD0202800302083CF0
:10079B00900003E0FC7D00900002E0FB7A00420534
:1007AB00EA4204ED4C6003020836900005E0FC7D44
:1007BB0000900004E0FB7A004205EA4204BD01050B
:1007CB00BC00028058BD0205BC0002803CBD030585
:1007DB00BC00028020BD8105BC00028036BD8205B5
:1007EB00BC0002801ABD833DBC003A74BF55D64491
:1007FB0003F5D6806E747F55D6440CF5D6806474A1
:10080B00BF55D44403F5D4805A747F55D4440CF5AA
:10081B00D4805074BF55D24403F5D28046747F55B3
:10082B00D2440CF5D27EFF7F0080387EFF7F0080A4
:10083B00327EFF7F00802C900000E4F0900001F0EE
:10084B00AC22AD23C3EC9402ED940040067E027FF4
:10085B00008010AE22AF23800A7EFF7F0080047ED3
:10086B00FF7F008E048F05BCFF0CBD00097524FFB4
:10087B0075DCCF020948C374089CE49D40088EDDEB
:10088B0075DCC002094875DD0075DCC002094874CF
:10089B0005B5240280587406B52463AE22AF23C37A
:1008AB00EE9408EF9400920240067E087F008004CD
:1008BB00AE22AF238527118528128529138E148F1D
:1008CB001590000075F000C007C006120BA9D006EA
:1008DB00D007E522C39EF522E5239FF523EE2527BE
:1008EB00F527EF3528F5288EDD63DC40804FE5E3F7
:1008FB005480FFE522FE4FF5E375DC02803F75DD8A
:10090B000075DC0280377420B5242C30DE2F751176
:10091B000075120075130085DB147515009000012E
:10092B0075F000120BA990000175F00012040D7503
:10093B00DD0085DCDC800675DD0043DC02C2D930CE
:10094B00D82975DC0275D21275D41275E300C2DAA0
:10095B00C2D9C2D878B5760078B6760078B776006B
:10096B0078B8760075260078BA760010DA02802304
:10097B00E5DAFF30E220E5A2FF20E7FA75A1557515
:10098B00A1AA75A9C143870275A15575A1AA75A91D
:10099B0000800375D8FFD0D0D000D001D002D00397
:1009AB00D004D005D006D007D083D082D0F0D0E0D1
:1009BB00D02102008CC0E0C007C000C0D075D000B1
:1009CB0030982478B5860778B5EF04F6EF2475F8E0
:1009DB00A69978B786E078B704F678B5B6400040AC
:1009EB000478B57600C298C299D0D0D000D007D089
:1009FB00E0327F008F328F338F348F358F368F37C6
:100A0B008F388F398F3A8F3B8F3C8F3D8F3E8F3F87
:100A1B008F408F418F428F438F448F458F468F4737
:100A2B008F488F498F4A8F4B8F4C8F4D8F4E8F4FE7
:100A3B008F508F518F528F538F548F558F568F5797
:100A4B008F588F598F5A8F5B8F5C8F5D8F5E8F5F47
:100A5B008F608F618F628F638F648F658F668F67F7
:100A6B008F688F698F6A8F6B8F6C8F6D8F6E8F6FA7
:100A7B008F708F7175724F75734B8F74C007120126
:100A8B00B29000051201E2C29FD29EC29DC2CDC29E
:100A9B00CC438780740F55894420F58943C9A075D1
:100AAB008DF3D28ED299D29CC2C7D2C5D2C475C295
:100ABB00F31203BB1203E51203D4D00775DD0075E7
:100ACB00D30075D5005393FD5392FDE52660FC785A
:100ADB00B8E6603F78B9860678B9EE04F6EE248066
:100AEB00F582E43400F583E0F5C110C10280FB7898
:100AFB00B9E62432F978B9E62480F582E43400F5BE
:100B0B0083E0F778B886E078B814F678B8E6700327
:100B1B0053D4F378B7E660010F78BAE670AD78B7C7
:100B2B00E6FE60A7EE24D84005EF249B509D7F0086
:100B3B0078B686047D008E027B00EA2CFCEB3DFD33
:100B4B00C374409C74808DF063F08095F0500978ED
:100B5B00B686057440C39DFE78B7E6C39EF678B69D
:100B6B00E62475F5117512007513408E147515007A
:100B7B009000C075F000C007C006120BA9D006D0BC
:100B8B000778B6EE26F678B6B64000400478B6760F
:0E0B9B00008ED553D4FC78BA7601020AD62219
:100C39001201100102000008861A22570001010260
:100C4900030109024300020100A032090400000166
:100C590002020100052400100105240100000424FA
:100C690002020524060001070581030800FF0904A3
:100C79000100020A00000007050202400000070502
:100C890082024000000403090414033200300031D9
:100C99000037002D0032002D0032003500140343C7
:100CA9000048003500350034005F0043004400432C
:0B0CB900000A035F6CCF82816C526068
:0600C300E478FFF6D8FD11
:100BA900AD82AE83AFF08D168E178F18851119851A
:100BB900121A85131BA814A9158803890418B8FFEC
:100BC9000119EB4C6025851982851A83851BF01262
:100BD9000C19FCA385821985831A8D828E838FF067
:100BE900EC120BFEA3AD82AE8380CE8516828517EB
:050BF900838518F022C5
:10008C00C000A88118C0D0B6001B18B64800401597
:10009C00B66F005010C0E0E65407B406005004E6FA
:0A00AC0054F8F6D0E0D0D0D00032B6
:100BFE0020F71130F6138883A88220F509F6A88312
:0B0C0E007583002280FEF280F5F022CA
:0D00B6007581BA120C35E5826003020089E5
:100C190020F71430F6148883A88220F507E6A88304
:100C290075830022E280F7E49322E0227582002294
:00000001FF
