:10009B00AE82AF83EE4F602AE5A104F5A1E5A10482
:1000AB00F5A1E5A104F5A1E5A104F5A1E5A104F5F0
:1000BB00A1E5A104F5A1E5A104F5A11EBEFF011F59
:1000CB0080D222AE82AF83EE4F60159003E8C0075B
:1000DB00C00612009BD006D0071EBEFF011F80E793
:0100EB0022F2
:0900ED00C007AF82DFFED007223C
:040000000200743254
:01000B0032C2
:0100130032BA
:01001B0032B2
:0100230032AA
:03002B0002026965
:100030000000E2FBEAF2802C0000E0FBEAF0802402
:10004000E6B50202EBF62200E2B50202EBF2220074
:10005000E0B50202EBF02230F6E0A88220F5D3EA08
:10006000C6F582228B822230F6E6A88220F5D9805E
:01007000CFC0
:10008700E4F508F509F50AF50BF518F519F51AF56C
:040097001B020071D7
:030071000200F694
:1000F60075A15575A1AA53B9F843B90675A1009023
:1001060000051200CE1202D81202861202EB12026B
:1001160053D2AF20B3127402B50A02800B20B10588
:100126001203048003120360208405859F19D2847C
:10013600E5C323540124FF50DAAEC4AFC5E50A2552
:100146000A240CF9870409870519C3EE9CEF9D5014
:1001560009ECC39EFEED9FFF80047E007F008E04A7
:100166008F05850AF005F07401800225E0D5F0FBC5
:10017600FBC3EE94F4EF9401500BEB55186017EBAC
:10018600F452188011C374D09E74079F5008EB5523
:10019600187003EB4218E50A250A2412F8A604088B
:1001A600A605050A74FD250A4003020241750A00E8
:1001B600E518700302023EAE12AF13E5142EFCE5FD
:1001C600153FFDAA16AB17EA2CFCEB3DFD8C828D84
:1001D6008375277F752800C007C006C003C00212BA
:1001E6000496AC82AD83D002D003D006D0078C1C17
:1001F6008D1DEC4D6045EAC39EF582EB9FF5838528
:100206001C27851D28120528AE82AF83C3EE948174
:10021600EF6480947F5005750B81801F8E048F05D7
:10022600C3747F9C74808DF063F08095F0500575E3
:100236000B7F80078E0B8003750B00E50A90056423
:1002460093FFE5C354F84FF5C30201192253C93F82
:1002560075CA3075CBF875CC3075CDF8D2CAD2AD2B
:10026600C2CF22C0E0C0D0C2CF74012508F508E491
:100276003509F509D0D0D0E0328508828509832278
:100286005393FD5392FD5393EF5392EF5393DF53E2
:1002960092DF53C3107F00BF03005028EF2F240CBA
:1002A600F9EF90056493FEE5C354F84EF5C3E5C334
:1002B60023540124FF50F7ADC4AEC5A70509A70610
:1002C600190F80D3900564E493FFE5C354F84FF506
:1002D600C3225397FB5396FB439A08439A01D28154
:1002E600D280D284225397F75396F75397FD5396AD
:1002F600FD5396EF439710C2B4D28AC28B22D2B472
:1003060090001412009B5392EF439310D29475FC05
:100316008075FA8753FAFD5392BF43934053937FF8
:1003260053927F75FBD8C294C2B420FC0330B3FA53
:10033600C2FC75F9AA20FC0330B3FAC2FC8519F990
:1003460020FC0330B3FAC2FC850BF920FC0330B362
:10035600FAC2FC5393EF5392EF22D2B490001412D8
:10036600009B5392EF439310D29475FC8075FA1755
:1003760053FAFD5393BF5392BF53937F53927FC259
:1003860094C2B420FC0330B3FAC2FC85F91B20FCEE
:100396000330B3FAC2FC85F91AD2945393EF539201
:0203A600EF2244
:030564000204038B
:1003A800E582FF70077527307E0180237D00EF60AE
:1003B8001CED2427F90D8F048C0375F00AEB84AB30
:1003C800F074302BF775F00AEC84FF80E18D068E0F
:1003D80007EF600C1FEF2427F987991099F380FB2A
:1003E80022E582FF30E70875992D10990280FB7489
:1003F8007F5FF5821203A822AE82AF83EE4F7007AB
:10040800751E307D018045752300EE4F603CE52365
:10041800241EF52405238E258F2675270A752800A6
:100428008525828526831204BFAB8274302BA824CD
:10043800F675270A75280085258285268312049675
:10044800AB82AC838B068C0780C0AD238D07EF6031
:100458000C1FEF241EF987991099F380FB22AD82B7
:10046800AE83AFF08D828E838FF012050CFC600C8A
:100478008C990DBD00010E1099EA80FB2275990A2E
:1004880010990280FB75990D10990280FB227A1051
:10049800E4FBFCE58225E0F582E58333F583EB3365
:1004A800FBEC33FCEB9527F5F0EC95284006FCAB0C
:0704B800F0438201DADD22AE
:06008100E478FFF6D8FD53
:1004BF00E527452860467A01E52725E0F527E52859
:1004CF00334012F528E5829527E583952840030AE6
:1004DF0080E6C3E52813F528E52713F527C3E58242
:1004EF009527F5F0E58395284005F58385F082C3C0
:0D04FF00E52813F528E52713F527DAE1229B
:0D00740075812A120560E5826003020071AB
:10050C0020F71430F6148883A88220F507E6A88318
:10051C0075830022E280F7E49322E022C2D5E583C2
:10052C0030E70DD2D5E4C39582F582E49583F5834B
:10053C00E52830E70DB2D5E4C39527F527E49528D7
:10054C00F52812049630D50BE4C39582F582E49518
:08055C0083F583227582002261
:00000001FF
